:100000000C9468070C94AF070C94AF070C94AF07DF
:100010000C94AF070C94AF070C94AF070C94AF0788
:100020000C94AF070C94AF070C94652F0C943B30E5
:100030000C94AE160C94AF070C94AF070C94AF075A
:100040000C94AF070C94AF070C94AF070C94AF0758
:100050000C94AF070C949A260C94AF070C94AF073E
:100060000C94AF070C94AF070C94AF070C94AF0738
:100070000C94AF070C94AF070C94AF070C94AF0728
:100080000C94AF070C94AF070C94AF070C94AF0718
:100090000C94AF070C94AF070C94AF070C94AF0708
:1000A0000C94AF070C94AF070C94AF07050109023D
:1000B000A10185020901A1000509190129081500FE
:1000C0002501950875018102050109300931158165
:1000D000257F95027508810609381581257F9501D0
:1000E00075088106050C0A38021581257F95017572
:1000F000088106C0C005010980A101850319012AF4
:10010000B700150126B700950175108100C0050CD8
:100110000901A101850419012AA002150126A002E6
:10012000950175108100C00660FF0961A101096297
:10013000150026FF00952075088102096315002629
:10014000FF00952075089102C005010906A101056F
:100150000719E029E7150025019508750181029529
:1001600001750881010507190029FF150026FF0008
:100170009506750881000508190129059505750181
:100180009102950175039101C000AF0000000000CD
:10019000003E5B4F5B3E003E6B4F6B3E001C3E7C67
:1001A0003E1C00183C7E3C18001C577D571C001C50
:1001B0005E7F5E1C0000183C180000FFE7C3E7FFED
:1001C00000001824180000FFE7DBE7FF0030483A82
:1001D000060E00262979292600407F0505070040E4
:1001E0007F05253F005A3CE73C5A007F3E1C1C0817
:1001F00000081C1C3E7F0014227F2214005F5F0059
:100200005F5F0006097F017F00006689956A0060D4
:10021000606060600094A2FFA2940008047E04085D
:100220000010207E20100008082A1C0800081C2A44
:100230000808001E10101010000C1E0C1E0C0030C0
:10024000383E383000060E3E0E060000000000006A
:100250000000005F000000000700070000147F148A
:100260007F1400242A7F2A120023130864620036B8
:100270004956205000000807030000001C224100DE
:10028000000041221C00002A1C7F1C2A0008083E96
:100290000808000080703000000808080808000006
:1002A00000606000002010080402003E5149453EF5
:1002B0000000427F400000724949494600214149FF
:1002C0004D33001814127F10002745454539003C76
:1002D0004A49493100412111090700364949493647
:1002E00000464949291E0000001400000000403467
:1002F000000000000814224100141414141400001B
:1003000041221408000201590906003E415D594E80
:10031000007C1211127C007F49494936003E414160
:100320004122007F4141413E007F49494941007FD0
:1003300009090901003E41415173007F0808087F07
:100340000000417F4100002040413F01007F081430
:100350002241007F40404040007F021C027F007F1E
:100360000408107F003E4141413E007F0909090613
:10037000003E4151215E007F091929460026494966
:1003800049320003017F0103003F4040403F001F0E
:100390002040201F003F4038403F00631408146392
:1003A000000304780403006159494D4300007F4174
:1003B000414100020408102000004141417F000437
:1003C00002010204004040404040000003070800D2
:1003D000002054547840007F284444380038444476
:1003E000442800384444287F0038545454180000EE
:1003F000087E09020018A4A49C78007F08040478F1
:100400000000447D4000002040403D00007F102857
:1004100044000000417F4000007C04780478007CA8
:100420000804047800384444443800FC1824241894
:100430000018242418FC007C0804040800485454C4
:1004400054240004043F4424003C4040207C001C11
:100450002040201C003C4030403C004428102844F0
:10046000004C9090907C004464544C44000008364A
:100470004100000000770000000041360800000243
:1004800001020402003C2623263C0000000000007C
:1004900000404040F0F8F8FF38FFF8F83FF8F8FF68
:1004A00038FFF8F8F040404000000000000080C035
:1004B000C0C0800000C0C08000000080C0C000C07C
:1004C000C0000080C0C00000000000C0C0C0C0C0AC
:1004D00000C0C0000000000000000000000000009C
:1004E000000000000000000000000000000000000C
:1004F00000000000000000000000000000000000FC
:1005000000000000000000000000C0F0F8FC3E1EEB
:1005100006010000007F4141417F007F4141417F52
:10052000000080C0E07E5B4F5BFEC00000C000DCCE
:10053000D7DEDEDED7DC00C00000000000000000D7
:1005400000000000000000000000000000000000AB
:1005500000494949FFFFFFFFE0DFBFBF00BFBFDF2A
:10056000E0FFFFFFFF49494900000000001F3F6016
:1005700060E0BF1F007F7F071E381E077F7F007F60
:100580007F0E1F3B716000000000007F7F0C0C0C91
:10059000007E7E007F7E0303007F7E03037E7E035A
:1005A000037F7E000F3E703C063C703E0F00327BA6
:1005B00049493F7E007F7E0303001E3F69696F2625
:1005C00000000000000000000000030F1F3F3C7807
:1005D00070600000007F4141417F007F4141417FC9
:1005E00000307B7F7830202030787F3B0003000F85
:1005F0007F0F0F0F7F0F00030000000000000000BE
:1006000000000000000000000000000000000000EA
:1006100000010101070F0F7F0F7F0F0F7E0F0F7F6C
:100620000F7F0F0F07010101000000000000000014
:1006300000000101000000000000000000000000B8
:1006400000000000000000000000000000000000AA
:10065000000000000000000000000000000000009A
:10066000000000000000000000000000000000008A
:10067000000000000000000000000000000000007A
:10068000000000000000000000000000000000006A
:10069000000000000000000000000000000000005A
:1006A000000000000000000000000000000000004A
:1006B000000000000000000000000000000000003A
:1006C000000000000000000000000009025B0003C1
:1006D0000100A0FA09040000010301010009211131
:1006E0000100012240000705810308000A090401F6
:1006F000000203000000092111010001222200076D
:1007000005820320000107050303200001090402FC
:10071000000103000000092111010001227B0007F4
:1007200005840320000A120110010000000800CB1C
:1007300037130100010200010A03310033003300C6
:10074000370000000A033000780043004200000038
:100750000403090400DA1281FFD9F1DB20A4A62EDC
:10076000AF00A0C000A1C800AED580A83FD3004014
:100770008D1420001E0F0500047F3F1F6432146497
:100780003214783C1E1E140A050000000000000010
:100790000000000000000000000000000000000059
:1007A0000000000000000000000000000000000049
:1007B0000000000000000000000000000000000039
:1007C0000000000000000000000000000000000029
:1007D0000000000000000000000000000000000019
:1007E0000000000000000000000000000000000009
:1007F00000000000000000000000000000000000F9
:1008000000000000000000000000000000000000E8
:1008100000000000000000000000000000000000D8
:1008200000000000000000000000000000000000C8
:1008300000000000000000000000000000000000B8
:1008400000000000000000000000000000000000A8
:100850000000000000000000000000000000000098
:100860000080408000000000000000000000000048
:100870000000000000000000000000804080000038
:100880000000000000000000000000000000000068
:100890000000000000000000000000000000000058
:1008A0000000000000000000000000000000000048
:1008B0000000000000000000000000000000000038
:1008C0000000000000000000000000000000000028
:1008D0000000000000000000008000000000000098
:1008E00001020402010101010101FF0000000000FA
:1008F00000000000FF0101010101010204020100EA
:100900000000000000800000000000000000000067
:1009100000000000000000000000000000000000D7
:1009200000000000000000000000000000000000C7
:1009300000000000000000000000000000000000B7
:1009400000000000000000000000000000000000A7
:10095000000000000000000205F805020000000091
:10096000000080C0C0E0E07078383F1C0E0E0EFE24
:100970000E0E1E1C3F387870E0E0C08000000000C2
:100980000000000205F80502000000000000000061
:100990000000000000000000000000000000000057
:1009A0000000000000000000000000000000000047
:1009B0000000000000000000000000000000000037
:1009C0000000000000000000000000000000000027
:1009D0000000000000000040A013A2424242424238
:1009E0004242FFFFFF000000FCFEFEC0C0C0C0FF8F
:1009F0000000003E3E3C3C000001FFFFFF4242423F
:100A000042424242A213A040000000008040404009
:100A100080000000000000000000000080C0404096
:100A2000C0800000C04040C0800000000000000006
:100A3000000000000000C040C0000000000080C0B6
:100A40004040C080000080C04040C0800000404066
:100A5000404040C00000000000F9080808080808ED
:100A600008087FFFFFC080800F1F1F01010101FFE9
:100A70000000001E1E0E0E80C0C0FFFF7F08080889
:100A80000808080808F900000000001F31404E4027
:100A9000311F0000611608166100001F31604040E0
:100AA000602000007F4444643B0000000000000020
:100AB00000000000000040407F4040000000206433
:100AC00044446E3B0000206444446E3B0000000040
:100AD000007E030100000008142314080000000039
:100AE0000000000001010307070FFE1E1C1C1CFF75
:100AF0001C1C1C1EFE0F0703030101000000000068
:100B0000000000040A110A040000000000000000B8
:100B100000000000000000000000000000000000D5
:100B200000000000000000000000000000000000C5
:100B300000000000000000000000000000000000B5
:100B400000000000000000000000000000000000A5
:100B50000000000000000000000000000000000095
:100B6000102844281010101010101F0000102847E3
:100B7000281000001F10101010101028442810001A
:100B8000000000000000000000202020200053434F
:100B9000522000202020200043415020002020200F
:100BA00020004E554D2000556E646566696E656483
:100BB000004261636B6C6967687400524742004D84
:100BC00049534300484F4D45004C617965723A20C6
:100BD0000000AE0000000000000000000000000067
:100BE0000000000000000000000000000000000005
:100BF000000000000000007E0F00D4FFFFFFC700D0
:100C000000007800000000000000002A2B280000EF
:100C100000000000000000000000000000002900AB
:100C20000000002C1E3420212224342627252E36B5
:100C30002D3738271E1F2021222324252633333623
:100C40002E37381F0405060708090A0B0C0D0E0F76
:100C5000101112131415161718191A1B1C1D2F31F9
:100C600030232D350405060708090A0B0C0D0E0F5D
:100C7000101112131415161718191A1B1C1D2F31D9
:100C800030354CAC00AB00AE004B004E0013504A68
:100C9000004D001150010001000100010001001091
:100CA00050010001001250C65CC75CC45CC85CC93E
:100CB0005C1150CC5CCD5C1350C15CC25CC05CBCB0
:100CC0005CBD5C1250BF5CBE5C1050222325262800
:100CD000292A2C2D2F3032333536383A3B3D3E40D1
:100CE00042434547494A4C4E5051535557595A5C17
:100CF0005E6062646668696B6D6F71737577797B2E
:100D00007D7F81838587898A8C8E90929496989A2C
:100D10009C9E9FA1A3A5A7A8AAACAEAFB1B3B4B641
:100D2000B8B9BBBCBEBFC1C2C3C5C6C7C9CACBCC9C
:100D3000CDCED0D1D2D2D3D4D5D6D7D7D8D9D9DA6F
:100D4000DADBDBDBDCDCDCDCDCDDDDDDDDDCDCDCE4
:100D5000DCDCDBDBDBDADAD9D9D8D7D7D6D5D4D30C
:100D6000D2D2D1D0CECDCCCBCAC9C7C6C5C3C2C1E1
:100D7000BFBEBCBBB9B8B6B4B3B1AFAEACAAA8A73E
:100D8000A5A3A19F9E9C9A98969492908E8C8A89F6
:100D9000878583817F7D7B79777573716F6D6B69D3
:100DA00068666462605E5C5A5957555351504E4CA8
:100DB0004A4947454342403E3D3B3A383635333257
:100DC000302F2D2C2A292826252322FFAA7F5540A3
:100DD00000010101010101010101020202020202FE
:100DE00002020203030303030303030404040404D1
:100DF0000404050505050506060606060707070798
:100E00000708080808090909090A0A0A0B0B0B0C4C
:100E10000C0C0D0D0D0E0E0E0F0F0F1010111111E9
:100E2000121213131414151516161717181819196A
:100E30001A1A1B1B1C1D1D1E1E1F202021222223CF
:100E40002424252626272829292A2B2C2D2D2E2F10
:100E500030313232333435363738393A3B3C3D3E27
:100E60003F404142434445464748494A4C4D4E4F16
:100E700050515354555658595A5B5D5E5F616264D8
:100E8000656668696B6C6D6F7072737577787A7B65
:100E90007D7E8082838587888A8C8E8F91939596BC
:100EA000989A9C9EA0A2A3A5A7A9ABADAFB1B3B5DC
:100EB000B7BABCBEC0C2C4C6C9CBCDCFD1D4D6D8B8
:100EC000DBDDDFE2E4E7E9EBEEF0F3F5F8FAFDFF56
:100ED00011241FBECFEFDAE0DEBFCDBF04B603FEA4
:100EE00027C08091EB069091EC06A091ED06B091A1
:100EF000EE068730904BA740B04BD1F41092EB0632
:100F00001092EC061092ED061092EE0614BE84B715
:100F1000877F84BF0FB6F894A895809160008861A0
:100F200080936000109260000FBEE0E0F8E3099546
:100F300026E0AAEBB1E001C01D92AB3EB207E1F79B
:100F400011E0A0E0B1E0E2E0F7E602C005900D920A
:100F5000AA3BB107D9F70E94BE260C9426330C9405
:100F600000009091E90692FF06C0282F28712830D2
:100F7000F9F4877F846093FF06C0282F28712831F9
:100F8000F1F4877E84612091EA0620FF06C0382FA5
:100F900038713830D9F4877F816021FF06C0282F4F
:100FA00028712831D1F4877E816194FD877E089570
:100FB000282F24712430F9F68B7F8860DCCF282F0E
:100FC0002471243101F78B7E8861DDCF382F317198
:100FD000313019F78E7F8860E0CF282F21712131C1
:100FE00021F78E7E8861E1CF8091DF0680FD14C0FD
:100FF00081FD14C082FD16C08091DE06882381F039
:10100000843180F422E3829FC001112464E170E006
:101010000E94B031862F08958CE0089589E10895EB
:1010200085E0089582E308958091DF0680FD16C073
:1010300081FD16C082FD16C08091DD068823A1F0D7
:10104000883280F428E0829FC001112468E270E0B9
:101050000E94B031862F672B39F0089582E0089501
:1010600084E0089588E0089581E008958D3E31F48C
:101070000E94F40781958093DA0608958E3E19F454
:101080000E94F407F8CF8F3E31F40E94F407819557
:101090008093D9060895803F19F40E94F407F8CF91
:1010A000893F29F40E9414088093DB0608958A3F43
:1010B00021F40E9414088195F7CF8B3F31F40E94F0
:1010C000140881958093DC0608958C3F19F40E94E2
:1010D0001408F8CF9FE0980F983070F4815F990B57
:1010E00021E030E001C0220F8A95EAF78091D8060E
:1010F000822B8093D80608958D3F31F48091DF06CE
:1011000081608093DF0608958E3F21F48091DF0691
:101110008260F7CF8F3FB9F78091DF068460F1CF0F
:101120004091D9068D3E59F48091DA0687FF0DC0B3
:101130001092DA0641110BC01092DE0608C08E3EF6
:1011400081F48091DA0618169CF3442381F0809193
:10115000DB069091DC06892B09F05AC01092DD065F
:1011600008958F3E49F447FFF0CF1092D906809141
:10117000DA068111ECCFE0CF803F19F41416ACF3FE
:10118000E4CF9091DB06893F29F41916F4F610920A
:10119000DB06DBCF8A3F19F497FFD7CFF8CF9091CA
:1011A000DC068B3F29F497FFD0CF1092DC06CDCF21
:1011B0008C3F19F41916CCF3C8CF9FE0980F9830E4
:1011C00090F4815F990B21E030E0B90102C0660F15
:1011D000771F8A95E2F7CB0180959091D8068923F5
:1011E0008093D806B2CF8D3F31F48091DF068E7F99
:1011F0008093DF06AACF8E3F21F48091DF068D7F9A
:10120000F7CF8F3F09F0A1CF8091DF068B7FF0CF22
:1012100008958F929F92AF92BF92CF92DF92EF92FA
:10122000FF920F931F93CF93DF93D82EC62EE90121
:10123000E42FF0E0E053F24F611113C04491942F7A
:10124000E42FE98348839A83DF91CF911F910F9117
:10125000FF90EF90DF90CF90BF90AF909F908F90D6
:101260000895062F10E0E49186E0D89E70011124C5
:101270002FEF30E0C701B9010E949C318D2D90E025
:10128000880F991FF5E5F69FA001F79F500D1124D7
:10129000841B950B982F990F890FA901401B510BA7
:1012A000E49FD001E59FB00D11244B2FC89E600133
:1012B0001124CD2CDD245901AC18BD08EA9D600134
:1012C000EB9DD00C11249D2D4901881A9108809E18
:1012D0005001819EB00C909EB00C1124AB2CBB240D
:1012E0002A193B09E29F8001E39F100D112463300E
:1012F0007105D1F08CEFE81683E0F80670F46130E8
:101300007105B1F062307105B9F08FEFE816F104A4
:1013100008F097CF9B2F412F94CF6430710579F05F
:1013200066307105B9F38DCF4D2D9E2FEB2F89CFF0
:101330004E2FED2D9B2F85CF912F4E2FF7CF9E2F28
:10134000E12F7FCF8091CC06982F9E7F29F481706A
:1013500082608093CC0608958635E8F381708465B9
:10136000F8CF0895FA0181110994FB01FDCFCF93C5
:10137000DF93CDB7DEB728970FB6F894DEBF0FBE68
:10138000CDBF883050F5811129C0909180009F77A2
:10139000909380002D98282F30E0AFEFBFEF0E9490
:1013A000173327E030E040E050E00E94F532C901F9
:1013B0002C3764E13607C0F469E070E00E949C318C
:1013C000709389006093880028960FB6F894DEBF6A
:1013D0000FBECDBFDF91CF91089587E0909180003F
:1013E000906890938000D7CF2A50374D4F4F5F4F72
:1013F000B42FA32F922F8827BC01CD0125EF38E20F
:1014000041E050E00E94F53229833A834B835C83AC
:10141000CA01B9010E9472319B01AC0169817A81D4
:101420008B819C810E947231BB27A92F982F872F17
:10143000BC010097A140B10519F66FEF7FEFC0CF57
:10144000282F220F220F220F909198069770922B2F
:1014500090939806987F21E009F420E090919806F7
:1014600020FB90F9909398060C94B709E091D1066F
:10147000F091D206309721F00190F081E02D09948F
:1014800080E0089520919302309194022817390743
:1014900071F09093940280939302E091D106F091C1
:1014A000D206309721F00680F781E02D0994089547
:1014B00020919102309192022817390771F0909390
:1014C000920280939102E091D106F091D20630977A
:1014D00021F00084F185E02D0994089580915A024D
:1014E00090915902981301C008958F5F8770FACFC9
:1014F000282F8091530290915402A0915502B091EF
:1015000056020097A105B10549F004C0B695A7950C
:10151000979587952A95D2F78170089580E0089570
:10152000292F220FE22FE90FE80F8E2F877041E05D
:1015300001C0440F8A95EAF7E695E695E69585E0C1
:10154000E89FF0011124E05CFD4F30E020E070E006
:101550005191DF011197CB01022E02C0969587951C
:101560000A94E2F7817081958527842385278C93DF
:101570002F5F3F4F2530310559F70895292F220F4E
:10158000E22FE90FE80F9E2F9770E695E695E69516
:1015900085E0E89FF0011124E05CFD4F50E040E061
:1015A00080E0219130E0092E02C0369527950A94FB
:1015B000E2F721703327042E01C0220F0A94EAF7C4
:1015C000822B4F5F5F4F4530510559F70895AEEBC1
:1015D000B1E0EFEF90E02D91821751F0EF3F19F459
:1015E000211101C0E92F9F5F9630A9F7EF3F09F461
:1015F00008950E2E000CFF0BE454FE4F82830895D5
:10160000EEEBF1E09191891303C0DF0111971C9279
:1016100091E0E43CF907B1F7089580914E02811101
:1016200010924E02089580914D0290915802892B9C
:1016300090914A02892B8093BC0190914E0299238C
:1016400091F0892B8093BC0120E08EEB91E0FC01AE
:101650003081019631112F5F31E0843C9307B9F757
:1016600021110E940D0BE091D106F091D206309726
:1016700031F00280F381E02D8CEB91E00994089524
:10168000882339F090914D02892B80934D020C9460
:10169000130B0895882341F0809590914D02892382
:1016A00080934D020C94130B089580E00895CF931E
:1016B000DF9300D000D0CDB7DEB78FB7F89420917C
:1016C0003B0230913C0240913D0250913E02298301
:1016D0003A834B835C838FBF69817A818B819C8144
:1016E0000F900F900F900F90DF91CF9108959C0174
:1016F0004FB7F89480913B0290913C02A0913D023B
:10170000B0913E024FBF821B930B089580913A0225
:101710000895FC01CB012091D6013091D701261705
:10172000370790F0009729F42091E8002E77209356
:10173000E80040E0009751F4411108C08091E800B2
:1017400082FF31C080E00895C901F3CF20913102BA
:101750002223A9F12530A9F12091E80023FD2DC015
:101760002091E80022FDEACF2091E80020FFE2CF9F
:101770003091F3002091F200009719F028303105E4
:1017800058F041E02830310509F040E02091E800B0
:101790002E772093E800CECF41914093F10001973E
:1017A0002F5F3F4FE9CF80913102882341F0853090
:1017B00041F08091E80083FFC1CF81E0089582E08D
:1017C000089583E008958091D00187FF13C0809130
:1017D000E80082FF06C08091E8008B778093E800E4
:1017E00004C0809131028111F2CF089580913102BD
:1017F0008823D9F38091E80080FFF8CF8091E8003A
:101800008E77ECCF2091E4003091E50095E6A901B8
:101810002091EC00822F817020FF06C08091E800AB
:1018200080FF06C080E008952091E80022FD1AC0E4
:1018300080913102882389F0853089F08091EB0016
:1018400085FD0FC02091E4003091E5004217530759
:10185000F9F29150E1F684E0089582E0089583E082
:10186000089581E00895E8EDF0E080818E7F808327
:101870001092E2001092DA001092E100A0EEB0E0C7
:101880008C9181608C9380818F77808319BCA7EDC8
:10189000B0E08C918E7F8C9380818F7E80831092BC
:1018A000CF010895EF92FF920F931F93CF937C0186
:1018B0008B010E94020CC82F811117C08091E80093
:1018C00085FD0BC08091E8008E778093E8000E9430
:1018D000020C882399F3C82F08C0F70181917F017A
:1018E0008093F1000150110949F78C2FCF911F917E
:1018F0000F91FF90EF900895982F9093E900242F77
:10190000762F50E0891731F07091EC002091ED00B6
:101910005091F00021FD06C09F5F973071F78093D2
:10192000E90008953091EB003E7F3093EB00309159
:10193000ED003D7F3093ED003091EB00316030934E
:10194000EB007093EC002093ED005093F000209199
:10195000EE0027FDE1CF0895CF92DF92EF92FF9244
:101960000F931F93CF93DF93C8EDD0E088818F7ED4
:101970008883E7EDF0E080818160808384E082BF2E
:1019800081E08093CF0188818E7F888302EE10E012
:10199000F80110821092DA0081EEC82ED12CF601E7
:1019A000108288818F778883888180688883888186
:1019B0008F7D888319BC109231021092CE01109253
:1019C00030021092CD0190EEE92EF12CF7018081CA
:1019D0008B7F808388818160888342E060E080E043
:1019E0000E947C0CF60180818E7F8083F8018081CB
:1019F00081608083808188608083F70180818E7F11
:101A00008083888180618883DF91CF911F910F91BE
:101A1000FF90EF90DF90CF9008950F931F93CF9397
:101A2000DF938B01D82FC92F0E94A209A8016D2F27
:101A30007C2F88E090E0DF91CF911F910F910C9463
:101A4000A132ECECF6E083E0808311828FEF828399
:101A50008383148263E070E08FEF9FEF0C940D0D91
:101A6000CF93DF9300D000D0CDB7DEB78091D00602
:101A7000833018F48F5F8093D0068091CC069091CC
:101A8000CD06A091CE06B091CF0689839A83AB8311
:101A9000BC83BC01CD010F900F900F900F90DF9190
:101AA000CF910C940D0DCF93DF9300D000D0CDB724
:101AB000DEB78091D006882319F081508093D0063C
:101AC0008091CC069091CD06A091CE06B091CF0624
:101AD00089839A83AB83BC83BC01CD010F900F90A7
:101AE0000F900F90DF91CF910C940D0D8091CC064B
:101AF00080FD0AC0E5EBF6E0118210821282339677
:101B000056E0E43CF507C1F7539A3BB1377F2BB160
:101B100028604FB7F89485EB96E0FC010196508160
:101B200068E02BB9000000C057FF3BB9550F00001B
:101B300000C000C000C03BB900C06A9591F756E0F4
:101B4000843C950751F74FBF8FE594E00197F1F77B
:101B500000C0000008959091CC0690FF0CC0E5EB0A
:101B6000F6E0818360834283339696E0E43CF90794
:101B7000C1F70C94760D0895CF93DF9300D00F92A8
:101B8000CDB7DEB79091CC0690FF0AC09E012F5FC3
:101B90003F4F0E9409094B8169818A810E94AB0DE8
:101BA0000F900F900F90DF91CF910895CF93DF9317
:101BB000EC01EC81F0E0E553F34F4491ECECF6E0FE
:101BC000628181810E94BC0D8C818F5F8C83DF914B
:101BD000CF910895CF93DF93EC01ECECF6E04381D5
:101BE00062818C810E94BC0D8C818F5F8C83DF9120
:101BF000CF9108955F926F927F928F929F92AF9252
:101C0000BF92CF92DF92EF92FF920F931F93CF93E9
:101C1000DF9300D000D000D00F92CDB7DEB7182FE1
:101C2000762E042F622E9091CC0690FF83C0E92F70
:101C3000E695AE2FB0E0A95ABE4F8C918093C406B2
:101C40009E7F9230C9F59E012F5F3F4F812F0E94EA
:101C500009094B8169818A810E94AB0D1093CD06E1
:101C60007092CE060093CF06662009F463C080917F
:101C7000CC069091CD06A091CE06B091CF068C8374
:101C80009D83AE83BF83BC01CD0127960FB6F89428
:101C9000DEBF0FBECDBFDF91CF911F910F91FF909F
:101CA000EF90DF90CF90BF90AF909F908F907F90FC
:101CB0006F905F900C940D0D823019F40091CF0657
:101CC000CDCF863019F41091CD06C8CF8930D9F325
:101CD000893121F6E9518E2F8170582EE695F0E07A
:101CE000E553F24FA590B490BB2485EBE82E86E037
:101CF000F82ED12CC12C95E0892E912CC601B4016F
:101D00000E949C31812F511013C0860F9701402FE4
:101D1000672D0E940909CA0CDB1C93E0E90EF11C37
:101D2000A4ECEA16A6E0FA0649F70E94760D96CFD3
:101D3000861BECCF27960FB6F894DEBF0FBECDBF43
:101D4000DF91CF911F910F91FF90EF90DF90CF9097
:101D5000BF90AF909F908F907F906F905F9008950D
:101D6000ECECF6E0818121E043816281885F0C9494
:101D7000FA0DECECF6E0818121E04381628188502C
:101D80000C94FA0DECECF6E0628128E0620F08F4A6
:101D90006FEF21E0438181810C94FA0DECECF6E0C9
:101DA000628128E0621B08F460E021E043818181C8
:101DB0000C94FA0DECECF6E0438128E0420F08F4B5
:101DC0004FEF21E0628181810C94FA0DECECF6E09A
:101DD000438128E0421B08F440E021E062818181D8
:101DE0000C94FA0D0F931F93CF93DF9300D00F92B3
:101DF000CDB7DEB78C018091B20681110AC09E0179
:101E00002F5F3F4F4FEF6FEF0E9409098A81809348
:101E1000B206F8016481613049F06230F1F08091DE
:101E2000B20640E0662331F040E019C06091B2068E
:101E300040E080E00E94AB0DF801848190E00196C3
:101E400063E070E00E94B03184830F900F900F9098
:101E5000DF91CF911F910F9108954091B20680E0DC
:101E600060E0E8CFEF92FF921F93CF93DF93EC01F6
:101E700085EBE82E86E0F82E10E08C8197014091EA
:101E8000CF066091CE06810F0E9409091D5C83E098
:101E9000E80EF11C1F3F89F70E94760D9A818C8114
:101EA00090FF08C08F5F8C83DF91CF911F91FF90CF
:101EB000EF9008958150F7CFCF92DF92EF92FF928B
:101EC0000F931F93CF93DF93FC018281DD24DA947B
:101ED00080FD02C0DD24D39405EB16E0D0E0C0E025
:101EE000F80111821082128294E0E92EF12CC12CAB
:101EF0008091B4068C0D8630E4F165E00E948E314D
:101F0000892F082E000C990B8C179D0791F4809156
:101F1000CF068E9DA0018F9D500D1124559547959C
:101F20005595479598016091CE068091CD060E9407
:101F30000909CD0CF1E0EF1AF108D1F621960D5FF9
:101F40001F4FC530D10561F60E94760D8091B40611
:101F500091E0D91214C0811110C084E08093B406BE
:101F6000DF91CF911F910F91FF90EF90DF90CF9075
:101F7000089587FFC6CF8B5FC4CF8150EFCF90E02D
:101F80000196BE010E94B031E9CF0F931F93CF930A
:101F9000DF93C5EBD6E0FE011182108212823396E8
:101FA00086E0E43CF807C1F710E000E08091B3065A
:101FB000082E000C990B081719078CF18091180155
:101FC000082E000C990B801791074CF19E0140914F
:101FD000CF066091CE068091CD060E9409090F5F61
:101FE0001F4F23960530110509F70E94760D809149
:101FF00017019091B306980F9093B30620911801A2
:10200000280F20931801121614F494301CF08195B7
:1020100080931701DF91CF911F910F91089519823D
:1020200018821A82DCCFCF92DF92EF92FF920F9349
:102030001F93CF93DF93CDB7DEB72E970FB6F894EB
:10204000DEBF0FBECDBF8D879E87AD85BE85149642
:102050001C91212F30E0D9010E9417339B01AC0164
:102060000E94E23269837A838B839C83E0E2F0E012
:10207000E11BF109A5E5B0E09B01AC010E94E23251
:1020800069877A878B879C879F01DF010E94D13106
:102090009B01AC010E94ED326D837E838F83988714
:1020A0009B01AC0189819A81AB81BC81280F391FCA
:1020B0004A1F5B1F69857A858B859C850E94F53256
:1020C000F22E822F90E0A9E2A21708F442C0B3E0FA
:1020D0002B9F9001112435952795122F109595EB84
:1020E000C92E96E0D92E00E085E5E82EEF188E2D5A
:1020F00001FD8F2D9601412F6091CE060E940909A6
:102100000F5FF3E0CF0ED11C053089F70E94760DEA
:10211000AD85BE8514969C9181E0992319F090328B
:1021200019F48FEF8093160180911601890FED85C8
:10213000FE8584832E960FB6F894DEBF0FBECDBF0A
:10214000DF91CF911F910F91FF90EF90DF90CF9093
:10215000089525E530E0F901E81BF90B9F01220FF6
:10216000331F2E0F3F1F37FFB6CF2F5F3F4FB3CF29
:10217000EF92FF920F931F93CF93DF93EC0105EB48
:1021800016E0F12CE12C6091CE068091CD069C8169
:1021900022E0E216F104FCF49923F9F09801409151
:1021A000CF060E9409098FEFE81AF80A0D5F1F4F4A
:1021B00025E0E216F10439F70E94760D8C8190E05B
:1021C0000196817099278C83DF91CF911F910F9198
:1021D000FF90EF900895992309F3980140E0E1CF33
:1021E00081E08093E00080E28093D8001092C900E3
:1021F0008FE19EE40197F1F700C0000087E090EBCB
:10220000DC018093EB069093EC06A093ED06B0936F
:10221000EE0688E19CE00FB6F894A89580936000E4
:102220000FBE90936000FFCFCF93DF93D82FC92FBD
:1022300081E08093E9008FEF9091E800815095FD57
:1022400006C095ED9A95F1F700008111F5CF8091C8
:10225000E80085FF16C050E040E068E070E08D2F98
:102260009C2F0E94520C8091E8008E778093E800AA
:1022700088E0ED2FFC2FA2E3B2E001900D928A9549
:10228000E1F7DF91CF91089524E02093E9002FEF4B
:102290003091E800215035FD06C035ED3A95F1F753
:1022A00000002111F5CF2091E80025FF0BC050E080
:1022B00040E066E070E00E94520C8091E8008E776A
:1022C0008093E8000895CF93DF9300D00F92CDB7AD
:1022D000DEB790913102943011F589836A837B8354
:1022E0009093E9008FEF9091E800815095FD06C032
:1022F00095ED9A95F1F700008111F5CF8091E800F6
:1023000085FF0DC050E040E063E070E0CE01019633
:102310000E94520C8091E8008E778093E8000F9025
:102320000F900F90DF91CF910895BC0183E00C9442
:102330006311BC0184E00C9463114F925F926F9221
:102340007F928F929F92AF92BF92CF92DF92EF9245
:10235000FF920F931F93CF93DF93FC016280448021
:1023600081E08483EBECFCE07490EAE4FDE0E4912E
:10237000C9E9D6E095EBE92E96E0F92E22EBC22EC4
:1023800026E0D22E32E0A32EBB24B39488248A9474
:10239000912C55245A94E7190E2F10E082E08615EF
:1023A00030F08091CD0688838091CE0689834110DC
:1023B00021C01B821A8297014A81698188810E940B
:1023C0000909259683E0E80EF11CCC16DD0631F7ED
:1023D000DF91CF911F910F91FF90EF90DF90CF9001
:1023E000BF90AF909F908F907F906F905F904F9035
:1023F0000C94760D8B818823E9F081508B83859D29
:10240000C00111246C8170E00E949C31FB01FF2708
:10241000E553F34F8491E82FE719E59DC00111249E
:10242000B8010E949C318091CF06689FB0011124B1
:102430007A83C1CF0E944832AC019091CF06969525
:1024400091589A9D90019B9D300D1124232F332785
:10245000421753070CF0AFCF82E0861588F40E9434
:102460004832B4010E94B03188830E9448322091E2
:10247000CE062695622F70E00E94B031280F298386
:102480001A828091CF06893C20F088EC8C838B8364
:1024900092CF8431D8F784E1F9CF0F931F93CF9374
:1024A000DF93C42FD0E0CC0FDD1F26E0629FC00D6C
:1024B000D11D112432E1839FC00DD11D1124CE0105
:1024C00086960E947B32082F10E0102F0027CE0145
:1024D00087960E947B329801282BC901DF91CF910A
:1024E0001F910F910895462F672F843030F4733079
:1024F00020F4433010F40C944D1290E080E00895E5
:10250000CF93DF930E947312EC01803E910509F492
:102510006EC060F58133910509F4B1C088F4893249
:10252000910509F4A5C08A9709F4B0C0C130D1055E
:1025300051F1CE010497813A910508F064C023C09F
:102540008933910509F44CC08238910509F448C0DB
:102550008533910509F485C0883A910508F09DC03E
:10256000853A910518F3A497D0640DC0843E910577
:1025700009F45CC060F4823E910509F447C0833ED3
:10258000910509F448C0CE01DF91CF910895863EB0
:10259000910509F456C0873E910509F457C081158D
:1025A00022E5920708F0ACC0811531E5930708F0E9
:1025B000FCC0883E910538F3811540E5940708F08A
:1025C00083C0C11580E4D80708F0ECC0CF3FD10527
:1025D00011F008F072C0CD3ED105A8F0D065D3CF80
:1025E0008091E906837079F2C0EED0E0CCCF809183
:1025F000E90680FD07C19091EA0690FFC4CFC3EEC3
:10260000D0E084FFC0CFD0E0C0E0BDCF8091E9062C
:1026100082FDF5CFB8CF8091E90682FDF6C090919A
:10262000EA0690FDE1CF84FFAECFEDCF8091EA06C0
:1026300081FFA9CF8091E906C7EED0E084FDE3CF0A
:10264000A2CF8091E90683FDF7CF9DCF8091E90667
:1026500083FDDEC09091EA0691FFE5CFC4EED0E0A5
:1026600092CF8091E90685FF8ECFC9E2D0E08BCF73
:102670008091E90685FF87CFC5E3D0E084CF8091C4
:10268000E90686FF80CFCAE2D0E07DCF8091E906DF
:1026900086FF79CFC1E3D0E076CF885A910947977A
:1026A00008F0B1CFC85AD0E0CC0FDD1FC557DE4FC0
:1026B0000990D881C02DD46466CFCE019A9581153A
:1026C0009F4108F460CF9FCFF4E096958795FA95E7
:1026D000E1F783702C2F26952695237040E2249FE6
:1026E00090011124382B8C2F8370C1E0D0E002C000
:1026F000CC0FDD1F8A95E2F7C22BD32BDC6843CFCA
:10270000C11586E5D80730F5C11595E5D90708F05C
:1027100060C0C11524E5D207C0F48C2F869586953C
:102720009E0123703327C115D34508F043C0C1E093
:10273000D0E002C0CC0FDD1F2A95E2F720E2829F95
:10274000C0011124C82BD92BD9CFDC2FCC27C46FC3
:10275000D06A19CFC1153AE5D30788F4C11549E508
:10276000D40708F041C0CE0198558F3F910511F074
:1027700008F049CFDC2FCC27C06FD06A04CFCE0140
:1027800090568115904208F03ECF8D2F8F710E9498
:10279000B10790E0982F882788279F719C012C2BE8
:1027A000E90120C0DF70D06AEECED82FCC27C16FF0
:1027B000D06AE9CEC1E0D0E002C0CC0FDD1F2A957F
:1027C000E2F730E2839FC0011124C82BD92BDA68CD
:1027D000DACE8C2F0E94B107C82FD0E0DC2FCC2797
:1027E000CC27DF71D062CFCE8C2F8F700E94B107C3
:1027F00034E0D695C7953A95E1F7CF70DC2FC82F16
:10280000D069C1CEC9E3D0E0BECEC2EED0E0BBCE2F
:10281000C6EED0E0B8CEBF92CF92DF92EF92FF9299
:102820000F931F93CF93DF938C01C0905302D090EE
:102830005402E0905502F090560280914F02909120
:102840005002A0915102B0915202C82AD92AEA2A14
:10285000FB2ACFE1D0E0BC2ED701C6010C2E04C06C
:10286000B695A795979587950A94D2F780FD0EC0E7
:10287000219788F7B12C8B2DDF91CF911F910F916C
:10288000FF90EF90DF90CF90BF900895B8018C2F0C
:102890000E948012019761F3EECF0F931F93CF93A5
:1028A000FC01828100811181882389F0662379F0FF
:1028B000C8010E940B14C82F682FC8010E94900AFB
:1028C000B8018C2FCF911F910F910C947312C801F6
:1028D0000E94BE0AC82FF4CFCF93DF93D82FC92F01
:1028E0000E940B146D2F7C2FDF91CF910C948012DE
:1028F0000E946C14282F892F8F70392F32953F70CA
:10290000903C80F43A30B0F4343020F4323090F41B
:1029100080E008953630E1F781E0283E88F0213FDD
:10292000B9F70EC03C3011F03F3091F7869586958F
:102930008695089581E0203F39F018F4283E40F74D
:102940000895243F29F7FCCF0895CF9384E090E0C9
:102950000E947B32C82F81E290E00E947B32982F48
:102960008C2FCF9108954F925F926F927F928F92AA
:102970009F92AF92BF92CF92DF92EF92FF920F930E
:102980001F93CF93DF9310E000E032E1632E712CB0
:10299000E801CC0FDD1F58011CC0F6018590949012
:1029A000692DC7010E948F32682DC70101960E94D0
:1029B0008F3222E0C20ED11C32E0E30EF11C4E1425
:1029C0005F0459F7269683E0A80EB11CC615D705FB
:1029D00081F0C501880F991F9C012D57334F690164
:1029E0007E0136E2E30EF11C2E018CE2480E511CF2
:1029F000D4CF3E0122E1620E711C075F1F4F0432EB
:102A0000110531F6DF91CF911F910F91FF90EF905B
:102A1000DF90CF90BF90AF909F908F907F906F90FE
:102A20005F904F900895CF93DF93CEE6D0E060E0C3
:102A3000CE010E948F322196C11584E0D807B9F7E4
:102A4000DF91CF910895682F86E090E00C948F324B
:102A500080919806982F969596959695883340F490
:102A60009F5F990F990F990F8770892B8093980614
:102A7000809198068160809398060E94231580912A
:102A800098068695869586950C94B7098091980648
:102A9000982F987F79F0885080939806887F91E0EE
:102AA00009F490E08091980690FB80F98093980655
:102AB0000E942315809198068695869586950C949C
:102AC000B7098091980680FD13C0816080939806B5
:102AD000813019F489E080939806809198060E94CD
:102AE0002315809198068695869586950C94B7094E
:102AF00008950E94200A809198060C94231590E076
:102B000080E00E9489329C0181E02B3E3E4F09F01B
:102B100080E00895CF92DF92EF92FF920F931F9380
:102B2000CF93DF936C017B0164E670E088E70E943D
:102B30008530EC018601EC0CFD1C97FD0EC0F80100
:102B4000849164E670E00E94E130EC01892B29F465
:102B50000F5F1F4FE016F10691F70E946E31CE0114
:102B6000DF91CF911F910F91FF90EF90DF90CF9069
:102B70000895CF93DF9300D000D0CDB7DEB780911A
:102B80002A028823F9F00E94570BDC01CB01805AFE
:102B90009541AF4FBF4F8093250290932602A0939B
:102BA0002702B09328028091290281110BC062E0B4
:102BB00070E089E891E00E948A15892B19F481E080
:102BC000809329020F900F900F900F90DF91CF917B
:102BD0000895CF93DF93682F81E06A3019F06D304C
:102BE00029F480E0DF91CF910C946A1680919606CB
:102BF0009091970626E0FC01A6ECB1E001900D92C1
:102C00002A95E1F7603E08F45AC026E0FC011192D3
:102C10002A95E9F7C0919606D091970646E050E0D4
:102C2000BE0186EC91E00E946E329E012659324030
:102C3000892B41F1C90146E0969587954A95E1F7C0
:102C400041E050E0BA0102C0660F771F8A95E2F7B3
:102C5000CB016091230270912402862B972BB9013E
:102C60006B5F7F4FE6E076956795EA95E1F702C0E6
:102C7000440F551F6A95E2F7842B952B90932402FD
:102C8000809323022A5F3F4F40919502642F70E0AA
:102C9000C9010E949C31481B463010F4240F311D9D
:102CA000211574E0370710F030E020E02A563D4F40
:102CB0003093970620939606DF91CF910895F6E022
:102CC0006F9FB001112465577E4F46E050E00E948F
:102CD0005832A0CFCF93E82F2091960630919706D7
:102CE0002659324040919502642F70E0C9010E943C
:102CF0009C31481B842FEE2361F066E00E948231F4
:102D0000C82FC15010F4CF91089580E20E94E915B8
:102D1000F8CFA901480F511D4115544018F080E02B
:102D200030E020E0280F311D2A563D4F30939706A2
:102D300020939606E8CFCF93DF93EC01FE018491B8
:102D4000811103C0DF91CF9108950E94E91521966A
:102D5000F5CF0E949B1681E00C946A161F921FB655
:102D60001F9211248F939F93AF93BF9380913F0243
:102D7000811113C080913B0290913C02A0913D02D1
:102D8000B0913E024196A11DB11D80933B029093EC
:102D90003C02A0933D02B0933E02BF91AF919F9140
:102DA0008F911F901FBE1F9018952FB7F894809198
:102DB0003B0290913C02A0913D02B0913E022FBF98
:102DC0000895CF92DF92EF92FF920F931F93CF93CC
:102DD000DF93E6EEF6E062E871E00BE811E0C0E0B8
:102DE000EE24E394F12C6B0150E040E030E0D6019A
:102DF0002D916D012F3FB9F0822F82958F70805EEB
:102E000090E0DC018C9190E02F7002C09595879541
:102E10002A95E2F780FD3AC0C701042E01C0880F51
:102E20000A94EAF7382B4F5F5F4F43305105F9F6AC
:102E30008081831769F1308381E0C82B31966D5F03
:102E40007F4F0617170779F6CC2321F181E0809395
:102E5000E2060E94D5169093E1068093E0068091E9
:102E6000E0069091E1060E94770B0697B8F08091FA
:102E7000E6069091E706A091E8068093E30690931A
:102E8000E406A093E5061092E20608C080E0CACFEF
:102E900080E0D3CF8091E2068111E1CF8C2FDF91CA
:102EA000CF911F910F91FF90EF90DF90CF900895F9
:102EB0000E94D5162091D9063091DA06232B21F0F5
:102EC0008093D5069093D6062091DB063091DC06E0
:102ED000232B21F08093D3069093D406E091D10662
:102EE000F091D206309749F082E08093D7060480B3
:102EF000F581E02D87ED96E009940895CF93C82FD2
:102F0000882309F48FC08238C1F40E94360A81FDFB
:102F100089C089E30E94E70A0E94130B2FEF31EE6C
:102F200084E0215030408040E1F700C0000089E398
:102F30000E94000BCF910C94130B8338A1F40E94D4
:102F4000360A80FD6FC083E50E94E70A0E94130BDA
:102F50009FEF21EE34E0915020403040E1F700C077
:102F6000000083E5E5CF8438A1F40E94360A82FD93
:102F700059C087E40E94E70A0E94130B8FEF91EE7D
:102F800024E0815090402040E1F700C0000087E439
:102F9000CFCF8CEF8C0F813A68F4EEEBF1E08191AA
:102FA000C817D1F131E0E43CF307C9F78C2F0E9438
:102FB000E70AC0CF80E28C0F883068F4C77021E048
:102FC00030E001C0220FCA95EAF780914D02822BB2
:102FD00080934D02AFCF8BE58C0F833038F42C2FCC
:102FE0002452330BC901CF910C94420AE8E5EC0F4F
:102FF000E73150F4F0E0EE0FFF1FE557FE4F808100
:103000009181CF910C94580ACD3E60F08C2F0E9494
:103010003608CF910C9458178C2F0E94000B0E94F9
:10302000130BC4CFCF910895882309F459C0823877
:1030300071F40E94360A81FF53C089E30E94E70AB7
:103040000E94130B89E30E94000B0C94130B83382E
:1030500059F40E94360A80FF43C083E50E94E70AC4
:103060000E94130B83E5EFCF843859F40E94360A8F
:1030700082FF36C087E40E94E70A0E94130B87E4B0
:10308000E2CF9CEF980F913AF0F290E2980F9830CF
:1030900088F4877021E030E0A90102C0440F551F79
:1030A0008A95E2F7CA01809590914D028923809319
:1030B0004D02CBCF9BE5980F933020F490E080E059
:1030C0000C94420A98E5980F973120F490E080E044
:1030D0000C94580A8D3E20F00E9490080C945817CA
:1030E00008950F931F93CF93C82F0AE010E0893300
:1030F00011F400E510E08C2F0E947E178FE99FE00D
:103100000197F1F700C0000001501109B9F78C2FA9
:10311000CF911F910F910C94141890E080E00E94C1
:10312000420A90E080E00E94580A109258021092E1
:103130004A020E94130B86E0E7EDF6E0DF011D92E4
:103140008A95E9F71092DE061092DD061092DF06EE
:103150000C94581710924D02EEEBF1E086E0DF017F
:103160001D928A95E9F70C948D181F93CF93DF93E6
:10317000CDB7DEB7AA970FB6F894DEBF0FBECDBFAE
:1031800080ED91E0FC0101962091F100208321E087
:10319000883D9207B9F78091D101893009F456C072
:1031A000C8F4823009F4B2C0833009F481C08130A0
:1031B00071F18091E80083FF81C28091D0019091EC
:1031C000D1019A3008F07AC2E92FF0E0E85DFC4CBA
:1031D0000C94C4318A3009F488C08B3051F7809147
:1031E000D001813231F78091D4019091D501892BA2
:1031F00001F78091E800877F8093E8000E94E30B4D
:103200008091D201809315010E94AA18D2CF80919B
:10321000D001813A71F68091E800877F8093E800C1
:103220008091D4019091D501892B61F468E082E30B
:1032300092E070E00E94890B8091E8008B77809388
:10324000E800B7CF60E090E080E0F3CF8091D0015C
:10325000813209F0AECF8091D4019091D5018D7F5C
:10326000892B09F0A6CF8091E800877F8093E80042
:103270008091E80082FF17C09091F3008091F200E6
:10328000029729F48091F1008B7F813021F48091A5
:10329000F10080933A028091E8008B778093E800F8
:1032A0000E94E30B86CF809131028111E1CF81CF63
:1032B0008091D001813A09F07CCF8091D401909126
:1032C000D501892B09F075CF8091E800877F809325
:1032D000E8008091E80080FFFCCF80911501809389
:1032E000F1008091E8008E77D9CF8091D0018132B2
:1032F00009F05FCF8091E800877F8093E8000E940B
:10330000E30B8091D3018093CC0153CF8091D00106
:10331000813A09F04ECF8091E800877F8093E800E2
:103320008091E80080FFFCCF8091CC01D8CF80381D
:1033300099F0823809F0C2C18091D4018F70873032
:1033400008F0BCC18093E9008091EB0085FB8827E1
:1033500080F91092E90006C08091CD019091300271
:10336000911182609091E800977F9093E80080939C
:10337000F1001092F1008091E8008E779BC18823C4
:1033800009F489C1823009F099C18091D20181117B
:103390008CC18091D4018F702FEF280F263008F058
:1033A0008DC18093E9002091EB0020FF7EC1933016
:1033B00031F48091EB0080628093EB0076C19091B4
:1033C000EB0090619093EB0021E030E001C0220F10
:1033D0008A95EAF72093EA001092EA008091EB00C8
:1033E0008860EACF81116AC11091D2011F77809164
:1033F000E3008078812B8093E3008091E800877F51
:103400008093E8000E94E30B8091E80080FFFCCFEE
:103410008091E30080688093E30082E0111183E0F3
:10342000809331024BC18058823008F047C14091EF
:10343000D2015091D3014C3D83E0580799F583E0C8
:103440008A838AE289834FB7F894DE01139620E0DD
:103450003EE051E2E32FF0E050935700849120FFCB
:1034600003C082958F703F5F8F708A30C8F0895C8F
:1034700090E08D939D932F5F243161F74FBF809132
:10348000E800877F8093E8006AE270E0CE01019651
:103490000E94890B8091E8008B778093E8000EC131
:1034A000805DE6CF8091D4019091D501252F3327FF
:1034B0002330310509F44AC078F52130310509F48B
:1034C00079C08BE590E0EBECF6E02230310509F0B5
:1034D000F5C02091E800277F2093E8002091D601D5
:1034E0003091D7018217930708F49C0140E0211521
:1034F000310509F064C0411162C08091E80082FD8D
:10350000C9CF80913102882329F2853019F2809148
:10351000E80083FFF2CFBECF2132310509F43BC072
:103520002232310509F0CAC08330910508F0C6C0C7
:10353000FC01EE0FFF1FE55DFE4F0190F081E02DD5
:10354000885D9E4FDC018C9190E011C0CA019927E3
:10355000413089F082309105B1F0892B09F0AEC07D
:10356000E0E5F7E0E4918E2F90E0E0E5F7E00097EA
:1035700009F4A4C0AECFE4E4F7E0E4918E2F90E02C
:10358000E4E4F7E0F4CFE8E3F7E0E4918E2F90E095
:10359000E8E3F7E0ECCF8330910508F08FC0880FA7
:1035A000991FFC01EF5CFE4F0190F081E02D89E056
:1035B00090E08FCF82E190E0E6E2F7E08ACF809161
:1035C0003102882309F466CF853009F463CF8091F6
:1035D000E80083FD5FCF8091E80082FD8ECF80916F
:1035E000E80080FF84CF9091F3008091F2002115D4
:1035F000310519F08830910550F041E0089709F045
:1036000040E08091E8008E778093E80070CF44918D
:103610004093F1003196215031090196E8CF80386E
:1036200009F04CC08091E800877F8093E80080918A
:10363000CE018093F1009FCE811140C01091D20144
:103640001230E0F58091E800877F8093E8001093C6
:10365000CE010E94E30B112311F084E005C080919C
:10366000E30087FDFACF81E08093310242E061EC14
:1036700081E00E947C0C42E261EC84E00E947C0CC0
:1036800042E261EC82E00E947C0C42E260EC83E06A
:103690000E947C0C13C08091D201813079F481E0CA
:1036A000933009F080E0809330021092E90080911D
:1036B000E800877F8093E8000E94E30B8091E80098
:1036C00083FF0AC08091E800877F8093E8008091A3
:1036D000EB0080628093EB00AA960FB6F894DEBFF1
:1036E0000FBECDBFDF91CF911F91089560934F0220
:1036F0007093500280935102909352020C948D1853
:103700006093530270935402809355029093560233
:103710000C948D180F931F93CF93DF9300D000D09C
:10372000CDB7DEB741E050E060E070E004C0440F88
:10373000551F661F771F8A95D2F78091530290918B
:103740005402A0915502B09156028A019B01082BA8
:10375000192B2A2B3B2B09831A832B833C83C9010A
:10376000B8010F900F900F900F90DF91CF911F91A4
:103770000F910C94801B0F931F93CF93DF9300D076
:1037800000D0CDB7DEB741E050E060E070E004C0AB
:10379000440F551F661F771F8A95D2F740955095A5
:1037A000609570958091530290915402A0915502BA
:1037B000B09156028A019B01082319232A233B2337
:1037C00009831A832B833C83C901B8010F900F90A2
:1037D0000F900F90DF91CF911F910F910C94801B50
:1037E000909157028095892380935702282F277044
:1037F00071F4282F082E000C330B9217130639F0A2
:103800008595859585950E94BB1B1092570208955A
:10381000CF93DF9300D000D0CDB7DEB780915302B5
:1038200090915402A0915502B0915602AC01BD0195
:1038300046705527662777279C014630510561055C
:10384000710591F4AD01286029833A834B835C8331
:1038500069817A818B819C810F900F900F900F90DE
:10386000DF91CF910C94801BAD01277FEDCF60914C
:10387000CC06669570E04BE050E089E191E00E9453
:103880006132892B19F481E08093C5060E94D51618
:103890009093C7068093C6060895CF93DF9300D018
:1038A00000D0CDB7DEB79091CC0690FF42C09170AA
:1038B000811135C092609093CC06662381F080918F
:1038C000CC069091CD06A091CE06B091CF0689830B
:1038D0009A83AB83BC83BC01CD010E940D0D609126
:1038E000CC06669570E04BE050E089E191E00E94E3
:1038F0006132892BD9F01092C50681E08093C90608
:1039000020E04091CF066091CE068091CD060F90C9
:103910000F900F900F90DF91CF910C94FA0D8B3296
:1039200010F09465C8CF880F982BC5CF0E94371C24
:10393000E4CF0F900F900F900F90DF91CF910895EB
:103940008091CC0686958F5F8B3208F081E061E034
:103950000C944D1C9091CC0696958FEF890F913069
:1039600009F48AE261E00C944D1C61E00C944D1C5A
:103970009091CC0690FF07C09695981720F0961767
:1039800010F40C94A01C0C94B51C6BEE7EEF90E030
:1039900080E00E94AD3260E082E090E00E948F32D1
:1039A00060E083E090E00E948F3210924F0210920C
:1039B0005002109251021092520260E084E090E0B6
:1039C0000E948F3260E081E290E00E948F3260E0DE
:1039D00085E090E00E948F3260E086E090E00E94F7
:1039E0008F326FEF87E090E00E948F3240E050E02E
:1039F000BA0188E090E00E94A13260E08DE090E0A2
:103A00000E948F3240E050E0BA0188E190E00E94CD
:103A1000A13260E087E190E00E948F3240E050E008
:103A2000BA018CE190E00E94A13260E080E290E077
:103A30000E948F3240E050E0BA0188E190E00E949D
:103A4000A1320E94611585E00E947915ECECF6E048
:103A500080818160808386950E94B51C21E04FEFB4
:103A60006FEF80E00E94FA0D8BE00E94B51C40E0F1
:103A700050E0BA018FE090E00E94A13240E050E0B7
:103A8000BA0183E190E00C94A1320E947F1581116C
:103A900002C00E94C51C86E090E00E947B328093A9
:103AA0009806803420F08770886380939806909100
:103AB0009806892F817090FF04C0892F869586957E
:103AC00086950C94B709FF920F931F93CF93DF93C2
:103AD000C62FD42F122F8823A9F060934B020E9487
:103AE000D5169093C5018093C401C77081E001C0D1
:103AF000880FCA95EAF7DF91CF911F910F91FF9040
:103B00000C94400B80914B02681334C08091C40127
:103B10009091C5010E94770B883C910558F500E211
:103B20000D0FCD17A9F0C770FF24F3948F2D01C09E
:103B3000880FCA95EAF70E944A0B083048F48D2F87
:103B4000877001C0FF0C8A95EAF78F2D0E94400B09
:103B5000812F0E9471180830A0F4D77081E001C055
:103B6000880FDA95EAF7DF91CF911F910F91FF90BF
:103B70000C944A0BC77081E001C0880FCA95EAF720
:103B8000F2CFDF91CF911F910F91FF9008953F9257
:103B90004F925F926F927F928F929F92AF92BF925D
:103BA000CF92DF92EF92FF920F931F93CF93DF9309
:103BB000CDB7DEB728970FB6F894DEBF0FBECDBFE6
:103BC0007C01DC0113968D919C911497892B41F017
:103BD00011968C9111979C9189238F3F09F043C6D0
:103BE00028960FB6F894DEBF0FBECDBFDF91CF9100
:103BF0001F910F91FF90EF90DF90CF90BF90AF900B
:103C00009F908F907F906F905F904F903F9008951E
:103C1000C80182519F45409708F0D8C58FEF93E0C7
:103C20000E947B3202514EE6842E912C882381F132
:103C3000809157028770A1F2D70112968C91882348
:103C400079F282E028960FB6F894DEBF0FBECDBFA2
:103C5000DF91CF911F910F91FF90EF90DF90CF9068
:103C6000BF90AF909F908F907F906F905F904F909C
:103C70003F900C94F01B8114B4E09B06C9F2C40180
:103C80000E947B32811101C00150EFEF8E1A9E0A13
:103C90000111F1CF8091240190912501A09126017D
:103CA000B091270189839A83AB83BC8344244394D6
:103CB0003AE0332E84010F5F1F4FC4010E947B3214
:103CC00089831A82882309F4B3CF9FEF980F93302A
:103CD00010F58A834982F2E08F0E911CC8010E9480
:103CE0007B328B83882309F4A3CF8E010F5F1F4F94
:103CF000D8012C912223F1F2213009F048C011960D
:103D00009C91119712968C91913039F40E5F1F4F50
:103D10000E94711808C04801E8CF923039F40E5F54
:103D20001F4F0E947E170F5F1F4FE2CF933029F481
:103D30000E5F1F4F0E941418F6CF943019F00F5FDA
:103D40001F4FF1CF0E5F1F4F20E030E0B8016F5FD3
:103D50007F4FF80141818053990B8A30910560F0C3
:103D60002115310501F38FE99FE00197F1F700C0BC
:103D7000000021503109F4CF329EF001339EF00D46
:103D800011249C012E0F3F1F842F8B01DFCFE22FC8
:103D9000F0E0ED5FF34F5490822F869586958695DF
:103DA00090E0FC01ED50F44F64902770712C022ECE
:103DB00002C0759467940A94E2F7A1E06A2277241E
:103DC000FC01ED51F44FA490B12C022E02C0B59429
:103DD000A7940A94E2F7B1E0AB22BB24FC01ED52B8
:103DE000F44FC490D12C02C0D594C7942A95E2F721
:103DF000E1E0CE22DD246114710419F081EE0E940D
:103E00007E17A114B10419F086EE0E947E17852D4D
:103E10000E947118AB2819F086EE0E9414186728CA
:103E200019F081EE0E941418CD2809F47CCF8CE2A1
:103E30006FCF81E00E948A1B0E94081CF9CE81E0AE
:103E40000E94BB1BF9CF82E0F5CF003C7CE5170751
:103E5000C1F1013C8CE5180709F443C0043F9CE51F
:103E6000190709F47EC008F064C0093DBCE51B07D2
:103E700009F473C028E241E00A3DECE51E0709F4AD
:103E80006EC026E241EE61EE083DFCE51F0709F435
:103E900060C03111BCC406311C4509F0C3C180911A
:103EA0004C0281112AC189E20E94000B7EC080E091
:103EB0000E947915BDCE0E944615BACE0E942815E3
:103EC000B7CE8091980680FF09C08E7F80939806B8
:103ED0000E94231580E00E94B709AACE0E946115B6
:103EE000A7CE90919806892F8695869586958F5FA7
:103EF0008F7197708830D0F4880F880F880F892BC6
:103F00008093980680919806887F91E009F490E06C
:103F10008091980690FB80F9809398060E94231563
:103F200080919806869586958695D5CF909398062C
:103F3000E9CF063F2CE51207C1F0073F4CE5140717
:103F4000C1F027E245EE64EE053F5CE5150709F098
:103F5000A0CF832F0E94631D6BCE27E245EE65EE56
:103F6000F8CF26E241EE60EEF4CF26E241EE62EEBB
:103F7000F0CF27E245EE66EEECCFC8018B5F9C45A3
:103F8000099708F450C40631BCE51B0709F0B7C017
:103F900080914D028A7A91E009F490E090934C026E
:103FA0008111A9C089E20E94E70A0E94130B40CE4A
:103FB000F801E350FC458091E9068160E331F105A9
:103FC00090F4EE5CFC4C0C94C4310B5F1C45093042
:103FD000110508F038C40B5B1C4CF8010C94C4317B
:103FE0008091E90682608093E9062DC48091E906FC
:103FF0008460F9CF8091E9068860F5CF8091EA0668
:1040000081608093EA061FC48091EA068260F9CF3E
:104010008091E9068061E7CF8091E9068062E3CF75
:104020008091E9068064DFCF0E94AA188091E9069A
:104030008068D9CF8091E9068C60D5CF8091EA065F
:104040008360DFCF8091E9068E7FCDCF8091E90636
:104050008D7FC9CF8091E9068B7FC5CF8091E9061E
:10406000877FC1CF8091EA068E7FCBCF8091EA0611
:104070008D7FC7CF8091E9068F7EB5CF8091E9060D
:104080008F7DB1CF8091E9068F7BADCF0E94AA18BA
:104090008091E9068F77A7CF8091E906837FA3CF30
:1040A0008091EA068C7FADCF8091E90682FB99274B
:1040B00090F921E0922790FB82F990FB83F993CF4E
:1040C0008091EA06982F909591708E7F892B90FBB6
:1040D00081F997CF0E94AA189091E906892F97FB42
:1040E00087F9805880CF61E08EE090E00E948F32A7
:1040F000AAC360E0F9CF85E356CF85E3D5CE8091A2
:104100004D028272F801E35CFC45E431F10508F0F0
:104110007EC0E25BFC4C0C94C4318091CC0680FFE5
:1041200021C08E7F8093CC060091CC061091CD06E5
:104130002091CE063091CF060D831E832F833887C2
:10414000C901B8010E940D0D1092C5061FEF20E7AE
:1041500032E0115020403040E1F700C000000E94E2
:10416000760D66CD81608093CC0686950E94B51C45
:104170005FCD4AEA5CE160EA7CE10E94B20958CD79
:1041800040EA5CE16AEA7CE1F8CF49EB5EE060EB93
:104190007EE0F3CF40EB5EE069EB7EE0EECF4EECED
:1041A0005EE062EC7EE0E9CF42EC5EE06EEC7EE049
:1041B000E4CF46EE5EE06AED7EE0DFCF4AED5EE002
:1041C00066EE7EE0DACF43E55DE060E37DE0D5CFEB
:1041D00040E35DE063E57DE0D0CF81E0C7CF65E0FF
:1041E00082E00E94B81C24CD68E086E0FACF6EE041
:1041F00089E0F7CF64E18FE0F4CF67E185E1F1CFAB
:1042000088E1B4CF62E289E1ECCF83E2AFCF332320
:1042100049F001154CE5140709F446C00F3D1C4553
:1042200009F44FC0F701C080D180C601332309F4DF
:104230004BC00E940B14182F682FC6010E94900AD1
:10424000B601812F0E9480128C01D70112969C909A
:10425000129715968C9082942FE0822280915702BB
:104260008770A1F0B92C992091F0812F807F803444
:1042700021F080E2800F883048F082E00E94F01B3D
:10428000809157028770BB24B3948111B12C812F88
:1042900082958F70C82ED12C8C3008F04FC0F6015B
:1042A000EE59FC4C0C94C4310E94AA186FEF74E3D1
:1042B0008CE0615070408040E1F700C000000E9437
:1042C000F0100E94C51CB4CC0E94BE0A182FB8CFB3
:1042D000B12FBF70AB2E107F19F0A29490EFA922DE
:1042E0009920C9F0AA2069F080E2800F883010F090
:1042F00001110BC080914D02A82AA0924D020E948C
:10430000130B802F0E947E1719C080915802A82A93
:10431000A0925802F4CF802F0E941418AA2071F0A6
:10432000A09480E2800F883010F0011143C080918A
:104330004D02A822A0924D020E94130BB8E0CB1AA6
:10434000D108E4E0CE16D10410F40E94360ABB2056
:10435000B1F08091570280FD12C0D70112961C92D5
:104360008595859585950E948A1BC7010E94C71D6A
:10437000809157028595859585950E94BB1B60E0CD
:10438000C70128960FB6F894DEBF0FBECDBFDF91F0
:10439000CF911F910F91FF90EF90DF90CF90BF9042
:1043A000AF909F908F907F906F905F904F903F90D5
:1043B0000C944D1480915802A822A0925802BCCFB0
:1043C000E12FEF70AE2E107F103219F0A29480EF23
:1043D000A822002381F0013079F19920D1F18820C1
:1043E00089F1D70115968C91159780FF8ACF8F7030
:1043F00015968C9327C0992091F090914E028A2DAA
:10440000892B811003C00E94400B98CFF1E08F12DE
:10441000FACF981709F492CF80934E028FCF811074
:1044200006C00E940D0B8A2D0E944A0B87CF01E027
:10443000801609F483CFF5CF992031F015E01815D7
:1044400008F47CCF8A2DDFCF24E0281508F476CF3E
:10445000EACF882041F3093369F4BFEFE7EEF3E0D8
:10446000B150E040F040E1F700C00000802F0E9412
:10447000141864CF8FE39CE90197F1F7F5CF812FF2
:1044800086958695837061F0813009F057CFC80119
:104490009370911002C090E080E00E94580A4ECFC5
:1044A000C8019370911002C090E080E00E94420A1F
:1044B00045CF802F992029F00E9436080E94581776
:1044C0003DCF0E949008FACF812F837009F07AC007
:1044D000911034CF202F229526952770220F220F7E
:1044E000402F4F7050E070E060E0022E04C0440F97
:1044F000551F661F771F0A94D2F780E090E0DC0119
:1045000004FF0FC08FE090E0A0E0B0E004C0880F8F
:10451000991FAA1FBB1F2A95D2F780959095A09549
:10452000B095E12FE695E695E370E23059F1E3307E
:1045300009F441C000914F021091500220915102A4
:1045400030915202E13099F0842B952BA62BB72B9A
:10455000AC01BD0140235123622373234D835E834D
:104560006F837887CB01BA010E94761BE7CE042BBC
:10457000152B262B372BB901A801482B592B6A2B59
:104580007B2BECCF842B952BA62BB72B40914F0286
:104590005091500260915102709152028C019D0124
:1045A00004271527262737270D831E832F83388757
:1045B000C901B801D9CF8A019B01082B192B2A2BDD
:1045C0003B2BF2CF992009F44CC010FFB7CE202F1F
:1045D000229526952770220F220F402F4F7050E012
:1045E00070E060E0022E04C0440F551F661F771F65
:1045F0000A94D2F780E090E0DC0104FF0FC08FE066
:1046000090E0A0E0B0E004C0880F991FAA1FBB1F74
:104610002A95D2F780959095A095B095E12FE695D3
:10462000E695E370E23059F1E330E1F10091530295
:10463000109154022091550230915602E130A1F0C0
:10464000842B952BA62BB72BAC01BD014023512306
:10465000622373234D835E836F837887CB01BA0116
:104660002DC011FF6BCEB3CF042B152B262B372B70
:10467000B901A801482B592B6A2B7B2BEBCF842B3C
:10468000952BA62BB72B4091530250915402609169
:104690005502709156028C019D010427152726278B
:1046A000372706C08A019B01082B192B2A2B3B2B8D
:1046B0000D831E832F833887C901B8010E94801B98
:1046C0003DCE1F70992029F0812F0E948A1B802FD8
:1046D0009ACE802F0E944A0B812F0E94BB1B2ECEA8
:1046E000023FD9F160F4003FF1F0013F79F19920E8
:1046F00009F458C0811005CE812F8F712BC0033F64
:1047000089F1043FA1F7992009F441C01F71812F5D
:104710000E948A1B58E0159FC0011124836080937A
:104720005702812F17C025E0911024E0281508F4C6
:1047300005CE1F7181E090E0A0E0B0E004C0880FDA
:10474000991FAA1FBB1F1A95D2F79DCF812F8F717A
:10475000992019F20E948A1BF1CD812F8F71992027
:10476000C9F3BBCF60E070E0CB01992009F4A6CF7C
:104770001F7181E090E0A0E0B0E0AC01BD0104C099
:10478000440F551F661F771F1A95D2F763CF81E03C
:104790000E94F01B61E0681508F0D0CD82E00E9415
:1047A000F01BCCCD882079F0093341F47FEF87EE00
:1047B00093E0715080409040E1F756CEAFE3BCE902
:1047C0001197F1F751CE812F8F7187CF0031BFE55F
:1047D0001B0709F42ECB0131EFE51E0709F433CB9B
:1047E0000F3BFCE51F0709F469CB08F02ECB0D3B0E
:1047F0004CE5140709F45BCB0E3B5CE5150709F4A7
:104800005ACB87E00C3B6CE5160709F451CB1092AC
:104810004B0206316CE5160708F0AFCB02307CE5A1
:10482000170708F46CCC0E94A5149093EA068093B5
:10483000E90606318CE5180708F0C7CB02309CE585
:10484000190708F0B5CB6091E9061091EA0684E0FB
:1048500090E00E948F32612F81E290E00E948F32BF
:104860000E94AA18E5C961E0C7010E944D148C019D
:10487000D70112963C913111CBC90031FFE51F07DA
:1048800009F4DDCA01312FE5120709F0E7CA82E019
:10489000D7CA1F93CF93DF9380919002807FA9F4B2
:1048A00080918D02882389F080915A02C09159022B
:1048B00070918B0260918C02A0918E02B0918F0258
:1048C000D62FD72316E0C81304C0DF91CF911F91D4
:1048D000089590E0109711F0DF3F19F4019687706A
:1048E000F2CF189F9001199F300D1124F901E55A5C
:1048F000FD4F41816413F2CF40814713EFCF4281D6
:104900004111ECCF438154814A1B5B0B483C51055C
:1049100028F7809190028F70806180939002F90156
:10492000E05AFD4F80818F70806180838BE892E038
:104930000E94C71DDF91CF911F910C946E0A9F9228
:10494000AF92BF92CF92DF92EF92FF920F931F939D
:10495000CF93DF93CDB7DEB72B970FB6F894DEBFBA
:104960000FBECDBF8C0185E0F801DE0117960190E6
:104970000D928A95E1F7F80180819181E2802BE820
:10498000A22E22E0B22E40918E0250918F0241154C
:10499000510549F020918B0230918C02622F6323E4
:1049A0006F3F09F022C1EE2009F42FC18F83988751
:1049B0008F8198850E947814F82E882309F425C1E8
:1049C00086E0F801ABE8B2E001900D928A95E1F73C
:1049D0000E9449241EC090909002692D607F483C3F
:1049E000510508F0A7C06111C5C0FE2C391324C0C1
:1049F000281322C0E11020C0892D8F708061809320
:104A000090028BE892E00E94C71D80919002F8010D
:104A100085838F2D2B960FB6F894DEBF0FBECDBFCA
:104A2000DF91CF911F910F91FF90EF90DF90CF908A
:104A3000BF90AF909F900895CD2829F0282F29236B
:104A40002F3F09F094C020E0F22FF170DF2EE091AB
:104A50005A024091590256E020FD1CC0EE20C9F2D6
:104A600080919002816080939002F12CD2CF2E2F02
:104A700030E05E9FF0011124E55AFD4F618169131A
:104A800006C06081681303C062816E11E7CFF9012F
:104A90003196E770E413EBCF8F8398878F819885E9
:104AA0000E946C14292F22952F70903260F0225FA3
:104AB0002F70223078F49F7051F0F8019581907F2B
:104AC00031F4D12C0AC09F7011F08823D1F3805E9D
:104AD0008830B8F3C8010E94C71DFD2C9ACF8F8380
:104AE00098878F8198850E947814882309F48DC057
:104AF000EE2009F48AC080919002803270F080919B
:104B00008B0290918C029A8389831B82DD82CC82F6
:104B10009E82CE0101960E94C71D86E0F801ABE897
:104B2000B2E001900D928A95E1F70E944924FF249A
:104B3000F3946FCF611132C08BE892E00E94C71DE1
:104B400086E0F50111928A95E9F78FCF8F839887D8
:104B50008F8198850E9478148111DFCF8091900217
:104B6000816080939002C8010E94C71D52CF21E04E
:104B70002E256ACF3913B3CF2813B1CFE110AFCFB1
:104B8000F8019582C8010E94C71D86E0F801ABE8D4
:104B9000B2E001900D928A95E1F73BCF39139FCF98
:104BA00028139DCFE1109BCFF8019582C8010E9488
:104BB000C71D86E0F50111928A95E9F72ACF3913CE
:104BC000C5CF2813C3CF8091900280FDDECF982FF0
:104BD000907FD9F2F8018583903FA1F2982F907FC2
:104BE000905F8F70892B8583CDCFC380D480F09068
:104BF0008D02B601641B750BAB01F110ECCE483C85
:104C00005105B8F6FE2CE110DACFC8010E94C71D8D
:104C10008ECF1F93CF93DF93CDB7DEB767970FB6D5
:104C2000F894DEBF0FBECDBF4B8B5C8B962F6D8B88
:104C30007E8B8F8B6111109258021A8A85E0FE01DB
:104C40007396DE011D9601900D928A95E1F79F877C
:104C500086E0FE013D96DE01179601900D928A9541
:104C6000E1F7CE0107960E949F24882389F016E081
:104C700080915A0290915902891349C067960FB6E4
:104C8000F894DEBF0FBECDBFDF91CF911F91089585
:104C900086E0FE013796DE01119601900D928A950D
:104CA000E1F78A859B85892B11F38F81988589236C
:104CB0008F3FE9F22091590230E0C90101968770D7
:104CC000992740915A024817190671F40E94AA18B0
:104CD0001092590210925A0286E0EBE8F2E0DF01EE
:104CE0001D928A95E9F7C3CF96E0929FD001939FDA
:104CF000B00D1124A55ABD4FFE01319601900D92C1
:104D00009A95E1F7809359020E946E0AB0CF819F75
:104D1000C0011124855A9D4F0E949F24882309F4C5
:104D2000ADCF80915A0290E00196877099278093C9
:104D30005A029ECF78941F921FB61F9211248F9310
:104D40009F93AF93BF9380913B0290913C02A091BF
:104D50003D02B0913E020196A11DB11D80933B0220
:104D600090933C02A0933D02B0933E02BF91AF915D
:104D70009F918F911F901FBE1F901895CDB7DEB7E2
:104D8000AB970FB6F894DEBF0FBECDBF84B7877F59
:104D900084BF0FB6F894A8958091600088618093D5
:104DA0006000109260000FBE80E890E00FB6F894AB
:104DB00080936100909361000FBE85B7806885BFC6
:104DC00085B7806885BF85E59BE09093BB018093A4
:104DD000BA010E94330C0E94AC0C8091E200846006
:104DE0008093E2007894809131028823A1F01091A1
:104DF000E9001F709091EC00892F817090FD80E890
:104E0000182B1092E9008091E80083FD0E94B518EC
:104E10001F701093E90082E084BD93E095BD9AEF86
:104E200097BD80936E0022E831E06BE871E001E00D
:104E300010E0D90150E040E08D918F3FE9F0D82E8D
:104E4000D2949FE0D92291E29D0DE92EF12CF70139
:104E5000C0808F70F80102C0EE0FFF1F8A95E2F745
:104E6000CF019E2F90959C21F7019083E2E2ED0DFA
:104E7000F0E09081892B80834F5F5F4F4330510575
:104E8000D9F62D5F3F4F6217730799F61092E60629
:104E90001092E3061092E7061092E4061092E806DC
:104EA0001092E5060E94E1168FE39CE90197F1F765
:104EB00000C000000E94E1168091E30680FF17C049
:104EC0006FEF82E290E00E948F326FEF83E290E01A
:104ED0000E948F326FEF84E290E00E948F326FEF7A
:104EE0007FEF90E080E00E94AD320E94F0100E94BF
:104EF0007F15811102C00E94C51C259A2D9882E859
:104F00008093800089E1809381008FEF9FEF9093E1
:104F10008700809386000E94451D82E290E00E94F7
:104F20007B32813209F0A5C783E290E00E947B3298
:104F3000833009F09EC784E290E00E947B32863085
:104F400009F097C70E94D5169093E0018093DF0186
:104F50001092210280E8809395020E947F306DE0DC
:104F600070E087E697E00E948A15892B09F03FC020
:104F70008091210263E070E081FD1EC284E697E02B
:104F80000E948A15892B99F56DE070E084E597E021
:104F90000E948A15892B59F50E94570BDC01CB0121
:104FA000805A9541AF4FBF4F8093250290932602C0
:104FB000A0932702B0932802E6E9F2E080E094E0B3
:104FC000DF019C011D9221503040E1F7F0939706DC
:104FD000E09396068FEF9FEF909324028093230235
:104FE00081E080932A0280932902109222020E947B
:104FF0007F15811102C00E94C51C82E090E00E94D2
:105000007B3280932C020E94A5149093EA06809331
:10501000E90683E090E00E947B32282F30E050E0E8
:1050200040E02EA33FA348A759A7CA01B9010E9497
:10503000761B0E94451D8091D801811133C00E94CA
:105040007F15811104C00E94C51C0E94210D88E0BB
:1050500090E00E9483326093CC067093CD068093DB
:10506000CE069093CF066E7F71F40E94210D88E0EA
:1050700090E00E9483326093CC067093CD068093BB
:10508000CE069093CF060E94A2091092C506809189
:10509000CC0680FF04C060E086950E944D1C81E034
:1050A0008093D80185988D9A86988E9A8FB185FBCA
:1050B000882780F97E9983C190E0892B8093DD0158
:1050C0008BE091E09093D2068093D106F0E4CF2E4E
:1050D000EE24E3948091310210E102E1853009F47D
:1050E000DCC10E94E116D82E81110E94570BA3EE5D
:1050F000B6E0EDE2F2E010E000E0202F9D9181911A
:10510000891709F4EDC18927382F3170F32E80FDFE
:10511000E1C181FDE1C182FFE3C182E0E4E0FE2E56
:1051200089832A839F2181E009F480E08B830E9498
:10513000D5168160782F9D838C8349815A816B813C
:105140008D810E940926F801E35DFD4F8081F826DC
:10515000F0828091C5068823D1F18091C406E09148
:10516000CC06E695E81BE093C806823009F0CFC173
:10517000F0E0EB57F84FE4910E2F10E066EDA62E0D
:105180006DE0B62E8091C906882361F01092C906A1
:105190000E94D5169093C7068093C6061092CB0640
:1051A0001092CA060E94D516E091C606F091C70675
:1051B0008E1B9F0B8F3F9F4750F4E00FF11FF09322
:1051C000C706E093C60686EC96E0F5010995E091E6
:1051D000DD01EE0FEE0FE093DD018FB185FB66245C
:1051E00060F87E9900C280E08629E82BE093DD011B
:1051F000EF70F0E0E95CFE4F80819091DC01890F57
:105200008093DC01F12C843074F08091DB018F5F9E
:105210008093DB0182E00E94780AF82E882309F44B
:10522000E5C10E94E60E8091DC018D3F74F480910F
:10523000DB0181508093DB0182E00E94780AF82E26
:10524000882309F4E2C10E94DA0E8091DC01082E65
:10525000000C990B64E070E00E94B0318093DC0197
:10526000F1100E94570B80912A02882309F49AC2F8
:1052700086E992E090939706809396068091DF01ED
:105280009091E0010E94770B883B9B4008F0CCC1D5
:105290008091DE018111C8C1209123023091240246
:1052A000A6E9B2E090E080E041E050E0FC01E75781
:1052B000F84F64917D91671791F0FD0131976083FC
:1052C000BC01E6E076956795EA95E1F7FA0102C040
:1052D000EE0FFF1F6A95E2F7BF012E2B372B0196C9
:1052E0008115F4E09F0711F73093240220932302E5
:1052F00020912302309124022115310509F423C2A3
:105300008091220261E070E081111DC2082F10E03F
:105310001B01082E02C0220C331C0A94E2F7A901DB
:1053200042215321452B09F445C39091210290FD60
:1053300043C38295880F880F80748093060198017B
:105340003695279520930901815C8093070110927F
:105350000A0124E630E047E050E064E071E088E7CD
:105360000E941031892B09F0EEC1A801E6E0440F3C
:10537000551FEA95E1F78091210280FD2BC34A5623
:105380005D4F04E610E020E430E060E488E70E942E
:105390003D31892B09F0D7C10E94B915C101809513
:1053A00090952090230230902402282239223092B6
:1053B000240220922302C7C181E697E0E1CD92E06A
:1053C0007CCE80913102843009F443C080E00E9499
:1053D000B7091092C5068091DA01811117C031E03A
:1053E0003093DA018091CC06982F91709093D90177
:1053F0008E7F8093CC064FEF50E762E041505040E3
:105400006040E1F700C000000E94760D10923F025C
:1054100088E190E00FB6F894A895809360000FBEE5
:10542000C092600083B7817F846083BF83B781604F
:1054300083BF7894889583B78E7F83BF0FB6F89427
:10544000A895809160008861809360001092600050
:105450000FBE80913002882301F10E94E1168091F5
:10546000E3069091E406892B9091E506892BA9F03B
:1054700019BD09BD09B400FEFDCF8091D8008F7D14
:105480008093D8008091E00082608093E00080915A
:10549000E00081FDFCCF0E94AA1880913102853086
:1054A00009F48FCF0E94AA180E94451D0E94360A57
:1054B0001092DA018091D901882349F08091CC06BD
:1054C00081608093CC0660E086950E944D1C0E940E
:1054D000371C07CE80E024CE81E072E0F72E20CE8C
:1054E0000F5F1F4F0330110509F007CE8FEF89A31F
:1054F0008AA31BA20E94D5168160782F9DA38CA33E
:1055000049A15AA16BA18DA10E94092622CE863005
:1055100059F4F0E0EE57F84FE4910E2F10E05AEEF8
:10552000A52E5DE0B52E2ECE893061F4E695F0E033
:10553000E158F84FE4910E2F10E042E3A42E4FE023
:10554000B42E20CE8F3061F4E695F0E0E458F84FA9
:10555000E4910E2F10E03CE5A32E3FE0B32E12CED7
:10556000853159F4F0E0E758F84FE4910E2F10E040
:1055700025ECA22E2FE0B22E05CE08E210E0B3E11A
:10558000AB2EB0E1BB2E883109F4FCCD833249F457
:10559000E7E7F7E00591149192EFA92E9EE0B92E6E
:1055A000F1CD04EF11E0A8EBAA2EA0E1BA2E8432CF
:1055B00009F4E8CD00ED17E0F1EBAF2EF9E0BF2ED6
:1055C000853209F0DFCD8E2F63E00E948231E92F12
:1055D000F0E0EC58F84FE4910E2F10E08DE9A82E82
:1055E00081E1B82ECFCD82E090E0FECD83E00E9435
:1055F000780AF82E882319F00E94461514CE8AEAFC
:105600000E947118FF24F3940ECE83E00E94780A62
:10561000F82E882319F00E94281517CE89EA0E94D7
:105620007118FF24F39411CEE092DE0189EC9BE027
:105630000E949B1640915302509154026091550272
:1056400070915602CB01AA27BB270097A105B1058F
:1056500009F446C0AC01BD0180E1052F162F272FAC
:105660003327011511052105310519F0885FB901AE
:10567000A8018A019B0194E0369527951795079517
:105680009A95D1F7011511052105310519F08C5FA7
:10569000B901A8018A019B01B2E0369527951795BB
:1056A0000795BA95D1F7011511052105310519F0B6
:1056B0008E5FB901A8017695679557954795452B5B
:1056C000462B472B09F08F5F823009F46EC150F4EE
:1056D000882369F0813009F465C187EA9BE009C03D
:1056E00080E0BBCF8330C9F781EB9BE002C084EC44
:1056F0009BE00E94A916E091D106F091D206309766
:1057000009F456C10190F081E02D0995182F82EA25
:105710009BE010FD02C08DE99BE00E949B1683E98F
:105720009BE011FF02C088E99BE00E949B1689E87C
:105730009BE012FF02C08EE89BE00E949B168091C6
:105740002A028111D5CD80912902882359F10E9426
:10575000570B6EA37FA388A799A7809125029091EC
:105760002602A0912702B09128022EA13FA148A5B0
:1057700059A5281B390B4A0B5B0BDA01C9018F3F76
:105780009F4FAF4FBF4770F480912A02882351F09A
:1057900062E070E081ED9BE00E948A15892B11F494
:1057A00010922902D11001C0F1100E94B91586E0B3
:1057B000E7EDF6E0DE01119601900D928A95E1F792
:1057C000D090D906F090DA060091DB061091DC0645
:1057D0001092D9061092DA061092DB061092DC06BF
:1057E0008D2D8F2909F448C08091D5069091D60659
:1057F0000E94770B9C018091DE06882309F460C328
:1058000023333105C8F18F3F19F08F5F8093DE0697
:10581000DD2059F00E94F4079FEF1D140CF491E075
:10582000899F802D11248093D906FF2059F00E9472
:10583000F4079FEF1F140CF491E0899F802D112431
:105840008093DA063091D9063323B1F02091DA063D
:10585000222391F045EB3403C0011124992309F46C
:1058600022C19093D90655EB2503900111243323CF
:1058700009F41CC13093DA06802F812B09F448C04B
:105880008091D3069091D4060E94770B9C01809161
:10589000DD06882309F40FC325363105C8F18F3F93
:1058A00019F08F5F8093DD06002359F00E941408E1
:1058B0009FEF10160CF491E0899F802D11248093A6
:1058C000DB06112359F00E9414089FEF11160CF407
:1058D00091E0899F802D11248093DC063091DB06B6
:1058E0003323B1F02091DC06222391F065EB3603DF
:1058F000C0011124992309F4DCC09093DB0645EB29
:10590000240390011124332309F4D6C03093DC061C
:105910008091D9069091DA06892B9091DB06892B2C
:105920009091DC06892B11F00E94581786E0FE0149
:105930003196A7EDB6E001900D928A95E1F70E94AD
:10594000360A90912B02891721F00E94360A809323
:105950002B0280913102843009F0BCCB83E080932C
:10596000E9008091E80082FFB5CB8091E80090E0EB
:1059700085FF06C00E94020C882309F4A0C091E0B4
:105980008091E8008B778093E800992309F4A2CBFB
:10599000E981E150E33108F008C1F0E0E259FC4C44
:1059A0000C94C4318FEB9BE0A4CE8BEB9BE0A1CE9B
:1059B00010E0B1CE8F5FAACC880F880F880F80933C
:1059C000060110920901895F8093070187E08093A7
:1059D0000A01BFCCE1EEF1E0DF012C2D1D922A95EA
:1059E000E9F78FE491E09BA78AA777E4472E71E05F
:1059F000572E99249394AAA5BBA56D91BBA7AAA7DE
:105A0000F20181912F01840F952F911D9C012A563F
:105A10003D4F3FA32EA3E62FF0E0EF51FE4F30E0C5
:105A200020E067E0A62EA21AB92C022E01C0BB0C02
:105A30000A94EAF70EA11FA180E0D8019D918D0183
:105A40009B216A2D681B6770862E062E000C770B33
:105A5000B92F01C0BB0F8A94EAF78B2E719561951F
:105A600071096770772701C096956A95EAF7892AC8
:105A70009081892A80828F5F8830F9F62F5F3F4FAF
:105A800031962830310569F6E7E5F1E02AA53BA516
:105A9000E217F30709F0AFCF04E610E020E430E0AE
:105AA00041EE51E072CCE092D906DDCEE092DA060A
:105AB000E3CEE092DB0623CFE092DC0629CF00E2C2
:105AC00010E0CE0101965C018091E80085FD0AC0DE
:105AD0008091E8008B778093E8000E94020C882375
